{
  "contractName": "Polygonscan_Request",
  "abi": [
    {
      "inputs": [],
      "stateMutability": "nonpayable",
      "type": "constructor"
    },
    {
      "anonymous": false,
      "inputs": [
        {
          "indexed": false,
          "internalType": "string",
          "name": "module",
          "type": "string"
        },
        {
          "indexed": false,
          "internalType": "string",
          "name": "action",
          "type": "string"
        },
        {
          "indexed": false,
          "internalType": "string",
          "name": "params",
          "type": "string"
        }
      ],
      "name": "PolygonscanParams",
      "type": "event"
    },
    {
      "inputs": [],
      "name": "isActive",
      "outputs": [
        {
          "internalType": "bool",
          "name": "",
          "type": "bool"
        }
      ],
      "stateMutability": "view",
      "type": "function",
      "constant": true
    },
    {
      "inputs": [],
      "name": "price",
      "outputs": [
        {
          "internalType": "uint256",
          "name": "",
          "type": "uint256"
        }
      ],
      "stateMutability": "view",
      "type": "function",
      "constant": true
    },
    {
      "inputs": [
        {
          "internalType": "string",
          "name": "_module",
          "type": "string"
        },
        {
          "internalType": "string",
          "name": "_action",
          "type": "string"
        },
        {
          "internalType": "string",
          "name": "_params",
          "type": "string"
        }
      ],
      "name": "sendPolygonscanParams",
      "outputs": [],
      "stateMutability": "payable",
      "type": "function",
      "payable": true
    },
    {
      "inputs": [
        {
          "internalType": "uint256",
          "name": "_price",
          "type": "uint256"
        }
      ],
      "name": "setPrices",
      "outputs": [],
      "stateMutability": "nonpayable",
      "type": "function"
    },
    {
      "inputs": [
        {
          "internalType": "bool",
          "name": "_isActive",
          "type": "bool"
        }
      ],
      "name": "setApiState",
      "outputs": [],
      "stateMutability": "nonpayable",
      "type": "function"
    },
    {
      "inputs": [
        {
          "internalType": "address payable",
          "name": "recipient",
          "type": "address"
        },
        {
          "internalType": "uint256",
          "name": "amount",
          "type": "uint256"
        }
      ],
      "name": "transferFunds",
      "outputs": [],
      "stateMutability": "nonpayable",
      "type": "function"
    }
  ],
  "bytecode": "0x608060405234801561001057600080fd5b50336001806101000a81548173ffffffffffffffffffffffffffffffffffffffff021916908373ffffffffffffffffffffffffffffffffffffffff160217905550610aa0806100606000396000f3fe6080604052600436106100555760003560e01c8063137769db1461005a57806322f3e2d414610083578063990dc9db146100ae578063a035b1fe146100d7578063a3201daa14610102578063e5d3257f1461012b575b600080fd5b34801561006657600080fd5b50610081600480360381019061007c91906104c0565b610147565b005b34801561008f57600080fd5b506100986101f2565b6040516100a591906104fc565b60405180910390f35b3480156100ba57600080fd5b506100d560048036038101906100d091906105ab565b610205565b005b3480156100e357600080fd5b506100ec6102f1565b6040516100f991906105fa565b60405180910390f35b34801561010e57600080fd5b5061012960048036038101906101249190610615565b6102f7565b005b610145600480360381019061014091906106a7565b61038f565b005b60018054906101000a900473ffffffffffffffffffffffffffffffffffffffff1673ffffffffffffffffffffffffffffffffffffffff163373ffffffffffffffffffffffffffffffffffffffff16146101d5576040517f08c379a00000000000000000000000000000000000000000000000000000000081526004016101cc906107b8565b60405180910390fd5b80600160006101000a81548160ff02191690831515021790555050565b600160009054906101000a900460ff1681565b60018054906101000a900473ffffffffffffffffffffffffffffffffffffffff1673ffffffffffffffffffffffffffffffffffffffff163373ffffffffffffffffffffffffffffffffffffffff1614610293576040517f08c379a000000000000000000000000000000000000000000000000000000000815260040161028a90610824565b60405180910390fd5b8173ffffffffffffffffffffffffffffffffffffffff166108fc670de0b6b3a7640000836102c19190610873565b9081150290604051600060405180830381858888f193505050501580156102ec573d6000803e3d6000fd5b505050565b60005481565b60018054906101000a900473ffffffffffffffffffffffffffffffffffffffff1673ffffffffffffffffffffffffffffffffffffffff163373ffffffffffffffffffffffffffffffffffffffff1614610385576040517f08c379a000000000000000000000000000000000000000000000000000000000815260040161037c906107b8565b60405180910390fd5b8060008190555050565b66038d7ea4c680006000546103a49190610873565b3410156103e6576040517f08c379a00000000000000000000000000000000000000000000000000000000081526004016103dd90610919565b60405180910390fd5b600160009054906101000a900460ff16610435576040517f08c379a000000000000000000000000000000000000000000000000000000000815260040161042c906109ab565b60405180910390fd5b7f6c9e52487ea50495a21fcc1ffad75324ff054a15b28aab8c03ac92ff2ef497b186868686868660405161046e96959493929190610a18565b60405180910390a1505050505050565b600080fd5b600080fd5b60008115159050919050565b61049d81610488565b81146104a857600080fd5b50565b6000813590506104ba81610494565b92915050565b6000602082840312156104d6576104d561047e565b5b60006104e4848285016104ab565b91505092915050565b6104f681610488565b82525050565b600060208201905061051160008301846104ed565b92915050565b600073ffffffffffffffffffffffffffffffffffffffff82169050919050565b600061054282610517565b9050919050565b61055281610537565b811461055d57600080fd5b50565b60008135905061056f81610549565b92915050565b6000819050919050565b61058881610575565b811461059357600080fd5b50565b6000813590506105a58161057f565b92915050565b600080604083850312156105c2576105c161047e565b5b60006105d085828601610560565b92505060206105e185828601610596565b9150509250929050565b6105f481610575565b82525050565b600060208201905061060f60008301846105eb565b92915050565b60006020828403121561062b5761062a61047e565b5b600061063984828501610596565b91505092915050565b600080fd5b600080fd5b600080fd5b60008083601f84011261066757610666610642565b5b8235905067ffffffffffffffff81111561068457610683610647565b5b6020830191508360018202830111156106a05761069f61064c565b5b9250929050565b600080600080600080606087890312156106c4576106c361047e565b5b600087013567ffffffffffffffff8111156106e2576106e1610483565b5b6106ee89828a01610651565b9650965050602087013567ffffffffffffffff81111561071157610710610483565b5b61071d89828a01610651565b9450945050604087013567ffffffffffffffff8111156107405761073f610483565b5b61074c89828a01610651565b92509250509295509295509295565b600082825260208201905092915050565b7f77726f6e67206f776e65722c2063616e74207570646174650000000000000000600082015250565b60006107a260188361075b565b91506107ad8261076c565b602082019050919050565b600060208201905081810360008301526107d181610795565b9050919050565b7f77726f6e67206f776e65722c2063616e74207472616e73666572000000000000600082015250565b600061080e601a8361075b565b9150610819826107d8565b602082019050919050565b6000602082019050818103600083015261083d81610801565b9050919050565b7f4e487b7100000000000000000000000000000000000000000000000000000000600052601160045260246000fd5b600061087e82610575565b915061088983610575565b9250817fffffffffffffffffffffffffffffffffffffffffffffffffffffffffffffffff04831182151516156108c2576108c1610844565b5b828202905092915050565b7f4e6f7420656e6f75676820657468657200000000000000000000000000000000600082015250565b600061090360108361075b565b915061090e826108cd565b602082019050919050565b60006020820190508181036000830152610932816108f6565b9050919050565b7f41504920696e6163746976652c20636865636b20646563656e746170692e636f60008201527f6d20666f72207374617475732e00000000000000000000000000000000000000602082015250565b6000610995602d8361075b565b91506109a082610939565b604082019050919050565b600060208201905081810360008301526109c481610988565b9050919050565b82818337600083830152505050565b6000601f19601f8301169050919050565b60006109f7838561075b565b9350610a048385846109cb565b610a0d836109da565b840190509392505050565b60006060820190508181036000830152610a3381888a6109eb565b90508181036020830152610a488186886109eb565b90508181036040830152610a5d8184866109eb565b905097965050505050505056fea2646970667358221220d8c454a541f0840954666e76ea7759f59c35a0b6c6334a5916cd5313eaa1cd6c64736f6c634300080a0033",
  "immutableReferences": {},
  "source": "// SPDX-License-Identifier: MIT\r\n// DecentAPI - 2021\r\npragma solidity >= 0.5.16 < 0.9.0;\r\n\r\ncontract Polygonscan_Request {\r\n\r\n    uint public price;\r\n    bool public isActive;    \r\n    address admin;\r\n\r\n\r\n    constructor(){\r\n        admin = msg.sender;\r\n\r\n    }\r\n\r\n    event PolygonscanParams(\r\n        string module,\r\n        string action,\r\n        string params\r\n\r\n\r\n        \r\n    );\r\n\r\n    function sendPolygonscanParams(string calldata _module, string calldata _action,string calldata _params) external payable {\r\n        if (msg.value < price*1000000000000000 ) {\r\n            revert('Not enough ether');\r\n        }\r\n        \r\n        if (!isActive){\r\n            revert('API inactive, check decentapi.com for status.');\r\n        }\r\n\r\n\r\n        emit PolygonscanParams(_module, _action,_params);\r\n\r\n\r\n\r\n    }  \r\n\r\n\r\n    function setPrices(uint _price) external {\r\n        if (msg.sender != admin) {\r\n            revert('wrong owner, cant update');\r\n        }        \r\n        \r\n        price = _price;    \r\n\r\n\r\n\r\n    }\r\n\r\n    function setApiState(bool _isActive) external {\r\n        if (msg.sender != admin) {\r\n            revert('wrong owner, cant update');\r\n        }\r\n\r\n        isActive = _isActive;\r\n\r\n\r\n    }\r\n\r\n\r\n\r\n    function transferFunds(address payable recipient, uint256 amount) external {\r\n        if (msg.sender != admin) {\r\n            revert('wrong owner, cant transfer');\r\n        }\r\n        recipient.transfer(amount * 1E18);\r\n    }\r\n\r\n    \r\n\r\n\r\n\r\n\r\n\r\n\r\n\r\n\r\n\r\n}",
  "sourcePath": "C:\\Users\\Salah\\projects\\web3_polygonscan\\contracts\\Polygonscan_Request.sol",
  "compiler": {
    "name": "solc",
    "version": "0.8.10+commit.fc410830.Emscripten.clang"
  },
  "schemaVersion": "3.4.4",
  "updatedAt": "2022-02-25T23:24:45.915Z",
  "networkType": "ethereum",
  "devdoc": {
    "kind": "dev",
    "methods": {},
    "version": 1
  },
  "userdoc": {
    "kind": "user",
    "methods": {},
    "version": 1
  }
}