{
  "contractName": "Polygonscan_Response",
  "abi": [
    {
      "inputs": [],
      "stateMutability": "nonpayable",
      "type": "constructor"
    },
    {
      "anonymous": false,
      "inputs": [
        {
          "indexed": false,
          "internalType": "string",
          "name": "sender_address",
          "type": "string"
        },
        {
          "indexed": false,
          "internalType": "string",
          "name": "dataCID",
          "type": "string"
        }
      ],
      "name": "PolygonscanData",
      "type": "event"
    },
    {
      "inputs": [
        {
          "internalType": "address",
          "name": "_allowedAddress",
          "type": "address"
        }
      ],
      "name": "addAllowedAddress",
      "outputs": [],
      "stateMutability": "nonpayable",
      "type": "function"
    },
    {
      "inputs": [
        {
          "internalType": "address",
          "name": "_uA",
          "type": "address"
        }
      ],
      "name": "isAddressAllowed",
      "outputs": [
        {
          "internalType": "bool",
          "name": "",
          "type": "bool"
        }
      ],
      "stateMutability": "view",
      "type": "function",
      "constant": true
    },
    {
      "inputs": [
        {
          "internalType": "string",
          "name": "_sender_address",
          "type": "string"
        },
        {
          "internalType": "string",
          "name": "_dataCID",
          "type": "string"
        }
      ],
      "name": "emitPolygonscanData",
      "outputs": [],
      "stateMutability": "nonpayable",
      "type": "function"
    }
  ],
  "bytecode": "0x608060405234801561001057600080fd5b50336000806101000a81548173ffffffffffffffffffffffffffffffffffffffff021916908373ffffffffffffffffffffffffffffffffffffffff160217905550610638806100606000396000f3fe608060405234801561001057600080fd5b50600436106100415760003560e01c806381788e2b146100465780638fa2a90314610062578063cca494bb14610092575b600080fd5b610060600480360381019061005b9190610348565b6100ae565b005b61007c60048036038101906100779190610348565b6101f9565b6040516100899190610390565b60405180910390f35b6100ac60048036038101906100a79190610410565b610255565b005b60008054906101000a900473ffffffffffffffffffffffffffffffffffffffff1673ffffffffffffffffffffffffffffffffffffffff163373ffffffffffffffffffffffffffffffffffffffff161461013c576040517f08c379a0000000000000000000000000000000000000000000000000000000008152600401610133906104ee565b60405180910390fd5b610145816101f9565b6101f657600280549050600160008373ffffffffffffffffffffffffffffffffffffffff1673ffffffffffffffffffffffffffffffffffffffff168152602001908152602001600020819055506002819080600181540180825580915050600190039060005260206000200160009091909190916101000a81548173ffffffffffffffffffffffffffffffffffffffff021916908373ffffffffffffffffffffffffffffffffffffffff1602179055505b50565b600080600160008473ffffffffffffffffffffffffffffffffffffffff1673ffffffffffffffffffffffffffffffffffffffff16815260200190815260200160002054111561024b5760019050610250565b600090505b919050565b61025e336101f9565b61029d576040517f08c379a00000000000000000000000000000000000000000000000000000000081526004016102949061055a565b60405180910390fd5b7f1c0c1e503e07f8ba87556e405244f689d35ffd9c8f197fe1c278725db92b37f3848484846040516102d294939291906105c7565b60405180910390a150505050565b600080fd5b600080fd5b600073ffffffffffffffffffffffffffffffffffffffff82169050919050565b6000610315826102ea565b9050919050565b6103258161030a565b811461033057600080fd5b50565b6000813590506103428161031c565b92915050565b60006020828403121561035e5761035d6102e0565b5b600061036c84828501610333565b91505092915050565b60008115159050919050565b61038a81610375565b82525050565b60006020820190506103a56000830184610381565b92915050565b600080fd5b600080fd5b600080fd5b60008083601f8401126103d0576103cf6103ab565b5b8235905067ffffffffffffffff8111156103ed576103ec6103b0565b5b602083019150836001820283011115610409576104086103b5565b5b9250929050565b6000806000806040858703121561042a576104296102e0565b5b600085013567ffffffffffffffff811115610448576104476102e5565b5b610454878288016103ba565b9450945050602085013567ffffffffffffffff811115610477576104766102e5565b5b610483878288016103ba565b925092505092959194509250565b600082825260208201905092915050565b7f77726f6e67206f776e65722c2063616e74206164642061646472657373000000600082015250565b60006104d8601d83610491565b91506104e3826104a2565b602082019050919050565b60006020820190508181036000830152610507816104cb565b9050919050565b7f77726f6e6720616464726573732c2063616e7420656d69740000000000000000600082015250565b6000610544601883610491565b915061054f8261050e565b602082019050919050565b6000602082019050818103600083015261057381610537565b9050919050565b82818337600083830152505050565b6000601f19601f8301169050919050565b60006105a68385610491565b93506105b383858461057a565b6105bc83610589565b840190509392505050565b600060408201905081810360008301526105e281868861059a565b905081810360208301526105f781848661059a565b90509594505050505056fea2646970667358221220819151b12f4f062b317032f458ae8a6d784edc26f959e50032cf94b0d9d4e13564736f6c634300080a0033",
  "immutableReferences": {},
  "source": "// SPDX-License-Identifier: MIT\r\n// DecentAPI - 2021\r\npragma solidity >= 0.5.16 < 0.9.0;\r\n  \r\ncontract Polygonscan_Response {\r\n\r\n    address admin;\r\n    mapping (address => uint) index;\r\n    address[] allowedAddresses;\r\n    \r\n\r\n    constructor()  {\r\n        admin = msg.sender;\r\n    }\r\n\r\n    function addAllowedAddress(address _allowedAddress) external {\r\n        if (msg.sender != admin) {\r\n            revert('wrong owner, cant add address');\r\n        }\r\n        \r\n        if (!isAddressAllowed(_allowedAddress)) {\r\n            index[_allowedAddress] = allowedAddresses.length;\r\n            allowedAddresses.push(_allowedAddress);\r\n        }\r\n\r\n    }\r\n    \r\n    function isAddressAllowed(address _uA) public view returns (bool) {\r\n        \r\n        if (index[_uA] > 0) {\r\n            return true;\r\n        }\r\n        return false;\r\n    }\r\n\r\n    event PolygonscanData(\r\n        string sender_address,\r\n        string dataCID\r\n    );\r\n\r\n    function emitPolygonscanData(\r\n        string calldata _sender_address,\r\n        string calldata _dataCID\r\n\r\n        ) external {\r\n\r\n        if (!isAddressAllowed(msg.sender)) {\r\n        revert('wrong address, cant emit');\r\n        }\r\n\r\n        emit PolygonscanData(\r\n            _sender_address, \r\n            _dataCID\r\n  \r\n            );\r\n\r\n\r\n\r\n    }\r\n\r\n    \r\n\r\n\r\n}",
  "sourcePath": "C:\\Users\\Salah\\projects\\web3_polygonscan\\contracts\\Polygonscan_Response.sol",
  "compiler": {
    "name": "solc",
    "version": "0.8.10+commit.fc410830.Emscripten.clang"
  },
  "schemaVersion": "3.4.4",
  "updatedAt": "2022-02-25T23:25:30.772Z",
  "networkType": "ethereum",
  "devdoc": {
    "kind": "dev",
    "methods": {},
    "version": 1
  },
  "userdoc": {
    "kind": "user",
    "methods": {},
    "version": 1
  }
}